:020000040800F2
:10000000F81B0020391A0008951A0008951A0008F4
:10001000951A0008951A0008951A000800000000BB
:10002000000000000000000000000000951A000819
:10003000951A000800000000951A0008951A00089B
:10004000951A0008951A0008951A0008951A0008D4
:10005000951A0008951A0008951A0008951A0008C4
:10006000951A0008951A0008951A0008951A0008B4
:10007000951A0008951A0008951A0008951A0008A4
:10008000951A0008951A0008951A0008951A000894
:10009000951A0008951A0008951A0008951A000884
:1000A000951A0008951A0008951A0008951A000874
:1000B000211A000855180008951A0008951A00081A
:1000C000951A0008951A0008951A0008951A000854
:1000D000951A0008951A0008951A0008951A000844
:1000E000951A0008951A00084D190008951A00087D
:1000F000951A0008951A0008951A0008951A000824
:10010000951A0008951A0008951A0008951A000813
:10011000951A0008951A0008951A0008951A000803
:10012000951A0008951A0008951A0008951A0008F3
:10013000951A0008951A0008951A0008951A0008E3
:10014000951A0008951A0008951A00083919000830
:10015000951A0008951A0008951A0008951A0008C3
:10016000951A0008951A0008951A0008951A0008B3
:10017000951A0008951A0008951A0008951A0008A3
:10018000951A0008951A000810B5054C237833B964
:10019000044B13B10448AFF300800123237010BD5A
:1001A000C004002000000000443E000808B5034BD6
:1001B0001BB103490348AFF3008008BD00000000F5
:1001C000C4040020443E000880B582B000AF012185
:1001D000042001F0CBFE4FF400533B6000233B7141
:1001E00000237B710023BB710023FB713B46194642
:1001F000034801F0F7FE00BF0837BD4680BD00BFD1
:100200000008024080B485B000AF78600023FB7323
:100210004A4B1B78DBB2002B00F08A80484B1B78DE
:10022000DBB2022B26D0032B58D1464B1B889BB246
:100230001B0A9BB21A46434B1B889BB2DB43DBB2C3
:100240009A424ED13F4B1B889BB2DBB29AB23D4BD8
:100250001A803D4B1B889BB21B021AB2394B1B887C
:100260009BB21BB213431BB29AB2364B1A800123C6
:10027000FB7336E0334B1B889BB21B0A9BB21A46BA
:10028000304B1B889BB2DB43DBB29A4209D12D4B2A
:100290001B889BB2DBB29AB22A4B1A800123FB73F4
:1002A00021E02A4B1B889BB248F2EE7293421AD18E
:1002B000234B0B221A70234B1B889BB21B129BB241
:1002C000DBB29AB2214B1A801E4B1B889BB2DBB269
:1002D0009AB21C4B1A800123FB7304E00123FB73C9
:1002E00002E000BF00E000BFFB7B002B1DD0144BE1
:1002F0001B78DAB27B681A70144B1B889AB27B6841
:100300005A80104B1B889BB2DAB27B681A71104B73
:100310001B78DAB27B685A710A4B00221A800B4BA9
:1003200000221A800A4B00221A70044B00221A7015
:10033000FB7B18461437BD4680BC7047F104002093
:10034000F2040020F6040020F8040020F404002049
:10035000FA04002080B483B000AF0346FB71794BF0
:100360005A7A794B1B789A422BD8764B9A7A764BED
:100370001B789A4225D9734BDB7B002B12D0FA797C
:10038000714B1B7819466F4B5B7ACB1A02FA03F359
:100390001AB26E4B1B881BB213431BB29AB26B4B43
:1003A0001A803FE0694B1B885B009AB2674B1A804A
:1003B000FB799AB2654B1B8813439AB2634B1A8040
:1003C00030E0604BDA7A604B1B789A422AD85D4B5A
:1003D0001A7B5D4B1B789A4224D95A4BDB7B002B4E
:1003E00012D0FA79584B1B781946564BDB7ACB1A48
:1003F00002FA03F31AB2564B1B881BB213431BB20B
:100400009AB2534B1A800DE0514B1B885B009AB295
:100410004F4B1A80FB799AB24D4B1B8813439AB20B
:100420004B4B1A80474B1B78032B17D1464B1B783D
:10043000102B13D9444B1B78142B0FD8FA79424B4D
:100440001B78113B02FA03F31AB2424B1B881BB212
:1004500013431BB29AB23F4B1A8068E0394B1B78AA
:10046000052B64D1384B1B78132B13D9364B1B78D3
:10047000172B0FD8FA79344B1B78083B02FA03F399
:100480001AB2334B1B881BB213431BB29AB2304BC8
:100490001A8016E02C4B1B78172B12D92A4B1B788D
:1004A0001B2B0ED8FA79284B1B78143B02FA03F366
:1004B0005AB2294B1B785BB213435BB2DAB2264BBC
:1004C0001A70214B1B782F2B31D8FB79002B16D0BB
:1004D0001D4B1B78DB08D8B20246204B9B5C5AB2FE
:1004E000194B1B7803F00703012101FA03F35BB2F8
:1004F00013435BB20246D9B2184B995417E0124B22
:100500001B78DB08D8B20246144B9B5C5AB20E4BE8
:100510001B7803F00703012101FA03F35BB2DB430D
:100520005BB213405BB20246D9B20C4B9954064BF6
:100530001B780133DAB2044B1A7000BF0C37BD468A
:1005400080BC7047E0040020DC040020FC04002094
:10055000FE040020000500200A05002004050020FC
:10056000B0B582B000AF4FF400519B4801F0C7FD19
:100570000346BB70994B1B78DBB2002B40F01B8409
:10058000974B1B78002B55D1BB78002B07D1954B8F
:100590001B780133DAB2934B1A7000F00CBC914B0C
:1005A0001B78002B18D08E4B01221A708E4B012223
:1005B0001A708E4B00221A708D4B00221A808D4BC0
:1005C00000221A808C4B00221A708C4BFF221A706A
:1005D0008B4B01221A70EEE38A4B1B884FF6FF7299
:1005E000934200F0E883874B1B8801339AB2854B16
:1005F0001A80854B1B884FF6FF72934200F0DB8315
:10060000814B1B8801339AB27F4B1A807E4B1B882B
:1006100040F23142934240F2CE837C4B1B88002B48
:1006200000F0C983794B00221A80774B4FF6FF7296
:100630001A80C0E36C4B1B78002B00F00681BB785E
:10064000002B14D06E4B1B780133DAB26C4B1A704E
:100650006B4B1B78E92B40F24382614B00221A70EE
:10066000604B00221A70664B00221A7038E2002399
:100670007B605C4B1B781E2B0ED95A4B1B78292BA9
:100680000AD85F4B1B78052B06D95D4B1B780A2BCC
:1006900002D85F4B7B607CE0524B1B785D2B0ED900
:1006A000504B1B78B12B0AD8554B1B782D2B06D9F4
:1006B000534B1B78592B02D8564B7B6069E0494B52
:1006C0001B785D2B0ED9474B1B78B12B0AD84C4BAE
:1006D0001B78162B06D94A4B1B782D2B02D84E4B74
:1006E0007B6056E03F4B1B783B2B0ED93D4B1B7874
:1006F0004B2B0AD8424B1B783B2B06D9404B1B781F
:100700004B2B02D8454B7B6043E0364B1B78282BA4
:100710000ED9344B1B78402B0AD8394B1B78282B29
:1007200006D9374B1B78402B02D83D4B7B6030E01D
:100730002C4B1B782C2B0ED92A4B1B78392B0AD823
:100740002F4B1B78152B06D92D4B1B781D2B02D850
:10075000344B7B601DE0234B1B78022B16D9214BB9
:100760001B78072B12D8264B1B78162B03D9244B4A
:100770001B781E2B07D9224B1B78082B06D9204B40
:100780001B780D2B02D8284B7B6002E0144B002213
:100790001A70134B1B78002B0AD0244A7B6814462E
:1007A0001D4628686968AA68EB680FC42B7C237013
:1007B000124B00221A701D4B1B78082B3BD1104B9B
:1007C0001B78162B34D90E4B1B781E2B30D80120EA
:1007D000FFF7C0FD2FE000BF00080240F104002039
:1007E0000B0500200C0500200D0500200E05002043
:1007F000FE040020FC0400200A050020DC04002088
:100800000F05002010050020000000201205002028
:10081000B43D0008C83D0008DC3D0008F03D00087C
:10082000043E0008183E00082C3E0008E0040020AA
:100830000020FFF78FFD994B01221A70984B002280
:100840001A70984B00221A704AE1974B1B78002BC4
:1008500000F036810023FB70BB78002B79D0934BDE
:100860005A7B934B1B789A421DD1904B9B7B012B5B
:1008700019D18E4B5A79894B1B789A4209D88B4BE8
:100880009A79864B1B789A4203D3884B00229A733D
:1008900061E0884B00221A70804B00221A70804B56
:1008A00000221A7057E07E4B1B780133DAB27C4B82
:1008B0001A707E4B1B78012B2AD1794B1B780B2B9E
:1008C00026D97B4B1B780A2B22D9794B1B78013315
:1008D000DAB2764B5A730123FB70754B1B780B3BD6
:1008E0001B021AB2744B1B881BB213431BB29AB281
:1008F000714B1A806D4BDA7A6D4B1B781344DBB267
:100900000133DAB2694B1A73654B0A221A7022E07E
:10091000634B1B78E92B1ED9654B1B781A46634B3A
:100920005B7B013B9A420AD1604B9B7B002B06D13B
:100930005F4B1B780133DAB25D4B1A700BE05D4BF5
:1009400000221A70554B00221A70554B00221A7063
:1009500001E00123FB70FB78002B00F0C180534BBA
:100960001B78032B52D1524B1B78102B4ED14B4B83
:100970001B78042B18D9494B1B780C2B14D8484BE7
:100980001B783B2B10D9464B1B784B2B0CD8464B76
:1009900000221A70494B00221A80454B1B78013304
:1009A000DAB2434B1A7030E03C4B1B78042B25D94C
:1009B0003A4B1B780C2B21D83C4B0A221A703B4B2C
:1009C0001022DA72394B20221A73384B20225A73C4
:1009D000334B1B780F2B0AD9314B1B78212B06D8B0
:1009E0000120FFF7B7FC304B00221A700DE0002009
:1009F000FFF7B0FC2C4B00221A7006E02D4B0022B2
:100A00001A70274B00221A7044E043E0274B5A78B3
:100A1000224B1B789A4218D8244B9A781F4B1B788C
:100A20009A4212D3214BDA781D4B1B789A420CD88C
:100A30001E4B1A791A4B1B789A4206D30120FFF7F6
:100A400089FC194B00221A7024E0184B5A79134B79
:100A50001B789A4218D8154B9A79104B1B789A42FA
:100A600012D3124BDA790E4B1B789A420CD80F4BEB
:100A70001A7A0B4B1B789A4206D30020FFF76AFCC8
:100A8000094B00221A7005E00A4B00221A70044B31
:100A900000221A70014B01221A7021E00C0500207F
:100AA0000F0500200D0500200E050020E0040020A9
:100AB000DC0400200B050020FC04002000050020C1
:100AC000BB78002B06D15D4B1B780133DAB25B4B50
:100AD0001A7005E05A4B01221A705A4B01221A7003
:100AE000594B1B78002B00F06681584B5A7B584BB2
:100AF0001B789A4240F05F81544B9B7B002B40F067
:100B00005A81544B1A88544B1B889A420BD1534B31
:100B10001B88B3F5966F06D2514B1B780133DAB2BE
:100B20004F4B1A7002E04E4B00221A70474B1B7855
:100B3000012B0BD14A4B1B78012B03D0484B1B7860
:100B4000022B03D1454B00221A80FEE03F4B1B785D
:100B5000052B07D1424B1B78012B03D13F4B0022C1
:100B60001A80F2E0394B1B780A2B09D13C4B1B78D9
:100B700003F00103002B03D0384B00221A80E4E07D
:100B8000384B01221A70314B1B78082B34D1324B71
:100B90001B88DB43C3F30903334A1288934213D102
:100BA000314B1A882C4B1A802F4B00221A80274B6E
:100BB0001A782E4B1A702E4B1A882E4B1A80264B01
:100BC0001A882D4B1A80C0E0234B1B8803F00103C9
:100BD000002B0AD1204B1A88234B1A80274B002266
:100BE0001A80204B00221A70AFE01F4B00221A809F
:100BF0001C4B00221A70A8E0144B1B78022B46D124
:100C0000134B1B78002B42D1144B1B88B3F5E16FBB
:100C10003AD21B4B1A88164B1A800E4B1A880E4B71
:100C20001A80184B1B78DBB243F00103DAB2154B84
:100C30001A700A4B00221A8029E000BF0C05002020
:100C40000E0500200F0500200B050020E004002009
:100C5000DC04002002000020FE040020100500201B
:100C600014050020F104002012050020F2040020E9
:100C7000FC040020F4040020F60400200000002002
:100C800004000020FA0400204E4B00221A704E4B44
:100C90001B78052B41D14D4B1B785BB203F00F0342
:100CA0005AB24A4B1B781B09DBB25BB253405AB2B3
:100CB000464B5B785BB203F00F035BB253405AB212
:100CC000424B5B781B09DBB25BB253405BB27B707B
:100CD0007A783E4B9B7803F00F039A4202D0394B4F
:100CE00000221A70394B9A78384BDB785340DAB2CD
:100CF000364B1B7953407B70344B5B797A789A4240
:100D000002D0304B00221A70314B1B78DAB2314BD3
:100D10001B781343DAB22E4B1A702B4B1A782E4BDA
:100D20001A702E4B1A882E4B1A80274B1B78022BD9
:100D300003D12A4B1A882B4B1A802B4B1A882B4B2A
:100D40001A802B4B1A882B4B1A801E4B1B78DBB258
:100D5000002B24D0284B1A88234B1B889A4213D18E
:100D6000204B1A881D4B1B889A420DD1234B1B88A0
:100D700040F6C902934207D8154B1B78DBB243F00B
:100D80000103DAB2124B1A70144B1A88154B1A80F1
:100D9000154B1A88184B1A80184B00221A80184BD2
:100DA00000221A70104B00221A80164B00221A7073
:100DB000154B00221A70034B1B78DBB2184608371C
:100DC000BD46B0BDF1040020E00400200405002071
:100DD000FA0400200A050020F2040020FC04002090
:100DE000F404002004000020FE040020F60400208B
:100DF00000050020F804002002000020100500205B
:100E00000B0500200C0500200F05002080B489B0E0
:100E100000AFF860B96011461A460B46FB711346E5
:100E2000BB800023FB76FB68DB78002B22D10023FC
:100E30007B610023FB61BB880333002B00DA0333A3
:100E40009B107B61FB79FA6832339B0013449B68EB
:100E50003B610023FB6109E0BB681A683B691A60CB
:100E6000FB690133FB61BB680433BB60FA697B69D2
:100E70009A42F1D3FB7E18462437BD4680BC7047AA
:100E800080B489B000AFF860B9601346FB800023DE
:100E9000FB61FB880333002B00DA03339B10BB613B
:100EA000FB68D3F8D0307B610023FB6109E07B69EC
:100EB0001A68BB681A60FB690133FB61BB680433C5
:100EC000BB60FA69BB699A42F1D3BB681846243704
:100ED000BD4680BC7047000080B586B000AF78602A
:100EE00039600023FB7400237B610023FB60FB68F7
:100EF00043F02003FB603B6803F01F03DAB2FB689A
:100F000062F38A13FB607B68DB68FA681A617B68AE
:100F1000DB681B69FB607B6901337B617B69094A84
:100F2000934206D8FB68C3F34013DBB2012BEED02B
:100F300000E000BF032001F0DFF9FB7C1846183702
:100F4000BD4680BD400D030080B483B000AF786023
:100F50007B68DB685B6903F0010318460C37BD460C
:100F600080BC704780B582B000AF78607868FFF7CA
:100F7000EBFF0346012B14BF01230023DBB218460D
:100F80000837BD4680BD80B485B000AF78600023CF
:100F9000FB607B68DB685B69FB607B68DB689B6987
:100FA000FA681340FB60FB6818461437BD4680BCE6
:100FB000704780B485B000AF78600023FB737B6816
:100FC0001B699B68BB603B7AC3F34103DBB2022B16
:100FD00009D0032B04D0012B02D00323FB7305E0BF
:100FE0000223FB7302E00123FB7300BFFB7B184667
:100FF0001437BD4680BC704780B487B000AF7860BE
:101000000023FB750023BB607B681B699B683B6109
:101010007B689B691B68FB603B7CC3F34103DBB2CD
:10102000022B04D0BB896FF30A03BB8105E0BB89A7
:10103000032262F30A03BB8100BF7B689B69FA68E5
:101040001A607B7A43F001037B727B681B695A68E4
:10105000BB68DB4302EA0301BA687B681B690A4389
:101060005A60FB7D18461C37BD4680BC704780B473
:1010700087B000AF786039600023FB740023FB6009
:101080000023BB603B685B78012B0FD13B681B786A
:101090007A6804339B0013449B687B613B681B7830
:1010A0001A46012393409BB23B810EE03B681B78BC
:1010B0007A6814339B0013445B687B613B681B7840
:1010C0001A46012393409BB27B817B691B68FB60BE
:1010D0007B7B23F07F03DBB2002B25D13B689B6831
:1010E000C3F30A039AB2BB8962F30A03BB813B686C
:1010F000DB7803F00303DAB2BB7B62F38303BB73D9
:101100003B68DB8803F00F03DAB2FB8962F38913D3
:10111000FB81FB7B43F01003FB737B7B43F080037D
:101120007B73FA687B691A607B681B69D969BA6846
:101130007B681B690A43DA61FB7C18461C37BD4695
:1011400080BC704780B588B000AF786039600023FC
:10115000FB770023BB6100237B6100233B613B687D
:101160005B78012B40F0AA803B681B787A680433D7
:101170009B0013449B681B687B613B681B787A6803
:1011800004339B0013449B681B693B613B685B69AC
:10119000002B09D13B696FF312033B617B8A01226B
:1011A00062F3CC037B8221E03B685B69C3F31202EC
:1011B0003B6962F312033B613B685A693B689B6879
:1011C00013445A1E3B689B68B2FBF3F3C3F3090355
:1011D0009AB27B8A62F3CC037B823B68DB78012B7B
:1011E00004D1FB7C012262F34613FB743B681B783D
:1011F0007A6804339B0013449B683A691A617B68E0
:10120000DB78012B0AD13B681B787A6804339B009A
:1012100013449B683A6812695A6115E03B68DB78B1
:10122000012B11D03B685B69002B0DD03B681B780C
:101230001A4601239340BB617B681B69596B7B682D
:101240001B69BA690A435A633B68DB78012B14D1E6
:101250007B681B699B68FB60FB68C3F30D239BB233
:1012600003F00103002B04D1FB7D43F02003FB7549
:1012700003E0FB7D43F01003FB75FB7D43F00403AB
:10128000FB75FB7D43F08003FB753B681B787A6838
:1012900004339B0013449B687A691A603B68DB78CF
:1012A000012B40F08B803B68D9683B681A783B681B
:1012B0005B699BB27868FFF7A9FD7FE03B681B780C
:1012C0007A6814339B0013445B681B687B613B683E
:1012D0001B787A6814339B0013445B681B693B617D
:1012E0003B685B69002B0DD13B689B68C3F312021E
:1012F0003B6962F312033B617B8A012262F3CC03F8
:101300007B8222E03B685A693B689B6813445A1E03
:101310003B689B68B2FBF3F3C3F309039AB27B8A81
:1013200062F3CC037B827B8AC3F3C9039BB2C3F312
:1013300012033A689268C2F3120202FB03F2C2F38C
:1013400012023B6962F312033B613B681B787A68C7
:1013500014339B0013445B683A691A617B68DB783D
:10136000012B09D13B681B787A6814339B00134426
:101370005B683A6812695A613B68DB78012B0CD1D3
:101380003B685B79002B04D0FB7D43F02003FB75A9
:1013900003E0FB7D43F01003FB75FB7D43F004038A
:1013A000FB75FB7D43F08003FB753B681B787A6817
:1013B00014339B0013445B687A691A60FB7F1846FC
:1013C0002037BD4680BD80B489B000AF78603960F9
:1013D0000023FB770023BB6100233B610023BB603C
:1013E0003B685B78012B6ED17B689B697B617B6975
:1013F0001B683B617B691B69BB603B685B69002BB9
:1014000009D13B7A6FF306033B72BB7A012262F388
:10141000C403BB7221E03B685A693B689B689A42EF
:101420000DD93B689A683B685A613B689B6803F03A
:101430007F03DAB23B7A62F306033B7208E03B6853
:101440005B6903F07F03DAB23B7A62F306033B7217
:10145000BB7A012262F3C403BB72BA687B691A616A
:101460007B68DB78012B09D13B681B787A680433F1
:101470009B0013449B683A6812695A61FB7C43F0F5
:101480000403FB74FB7C43F08003FB743A697B69C3
:101490001A607B68DB78002B74D13B685B69002B9A
:1014A00070D03B681B781A46012393401A46BB69EB
:1014B0001343BB617B681B69596B7B681B69BA6905
:1014C0000A435A635EE03B681B787A6814339B00DA
:1014D00013445B681B683B613B681B787A68143374
:1014E0009B0013445B681B69BB603B685B69002B16
:1014F0000ED13B689B6803F07F03DAB23B7A62F35C
:1015000006033B72BB7A012262F3C403BB7211E093
:101510003B689A683B685A613B689B6803F07F03AD
:10152000DAB23B7A62F306033B72BB7A012262F3C2
:10153000C403BB723B681B787A6814339B00134466
:101540005B68BA681A617B68DB78012B09D13B685C
:101550001B787A6814339B0013445B683A681269FD
:101560005A61FB7C43F00403FB74FB7C43F0800373
:10157000FB743B681B787A6814339B0013445B68E8
:101580003A691A60FB7F18462437BD4680BC704715
:1015900080B487B000AF786039600023FB7500230A
:1015A000FB603B685B78012B1CD13B681B787A6839
:1015B00004339B0013449B683B613B691B68FB60E1
:1015C000FB7B23F07F03DBB2002B03D0FB7B43F0DC
:1015D0004003FB73BB7B43F02003BB73FA683B699A
:1015E0001A6011E03B681B787A6814339B0013443F
:1015F0005B683B613B691B68FB60BB7B43F020037E
:10160000BB73FA683B691A60FB7D18461C37BD4600
:1016100080BC704780B487B000AF78603960002329
:10162000FB740023FB603B685B78012B08D13B68AF
:101630001B787A6804339B0013449B687B6107E046
:101640003B681B787A6814339B0013445B687B61AA
:101650007B691B68FB60BB7B6FF34513BB733B6807
:10166000DB78032B03D03B68DB78022B03D1FB7BB9
:1016700043F01003FB73FA687B691A60FB7C184621
:101680001C37BD4680BC704780B485B000AF786021
:101690007B681B699B69FB607B681B69DB69FA6877
:1016A0001340FB60FB681B0C18461437BD4680BC1A
:1016B000704780B485B000AF78600B46FB70FB7854
:1016C0007A6814339B0013445B689B68FB607B68FB
:1016D0001B695B69FA681340FB60FB6818461437A6
:1016E000BD4680BC704780B485B000AF78607B6831
:1016F0001B699B69FB607B681B69DB69FA681340A7
:10170000FB60FB689BB218461437BD4680BC70472F
:1017100080B487B000AF786000233B61FB7C43F06E
:10172000C003FB74BB7C012262F3C403BB743B7C2B
:10173000182262F306033B747B685B6D3A691A6199
:101740007B68DB78012B16D10023FB607B6803F5F7
:10175000B9627B685B6D5A617B685B6D1B68FB607F
:10176000FB7B43F08003FB734FF08023FB607B68BF
:101770005B6DFA681A6000BF1C37BD4680BC7047BD
:1017800080B485B000AF78607B689B7A002B1BD05B
:101790007B681B699B68FB603B7B03F00103DBB24A
:1017A000002B11D07B6803F586731B68BB603B7A06
:1017B0006FF341033B723B7A6FF300033B727B682C
:1017C000D3F80C31BA681A6000BF1437BD4680BC2C
:1017D0007047000080B586B000AF0346FB80012152
:1017E000022000F0E1FB40F633033B61FB88BB8144
:1017F0000023BB820023FB8107F10C031946054837
:1018000002F058F90121034802F0BEF900BF183771
:10181000BD4680BD0004004080B582B000AF1D23EE
:101820003B7100237B710023BB710123FB713B1DC6
:10183000184601F0FFFE0121054802F010FA0122CE
:101840000121034802F0BFF900BF0837BD4680BD43
:101850000004004080B500AF0121304802F0D6F905
:101860000346002B58D02E4800F096F80346012B73
:101870003DD12C4B1B6801332A4A1360284B5B88EF
:10188000B3F57F4F33D1264B1B79082B03D1264B61
:101890004FF480521A83224B1B79182B03D1224B11
:1018A0004FF400521A831E4B1B795A2B03D11E4B47
:1018B0004FF480421A831A4B1B79522B03D11A4BD7
:1018C0004FF400421A83164B1B791C2B03D1164B85
:1018D0004FF470425A83154B01221A7001211448AB
:1018E00000F026FC0E4B1B791A46124B1A600C4B6B
:1018F0001B791A460F4B1B689A4203D10B4B0022EF
:101900001A7005E0094B01221A70054B00221A716A
:101910000121024802F0A3F900BF80BD000400408D
:101920004C05002018050020000C0240480500204E
:1019300050050020440B002080B500AF024801F0A4
:101940003AF900BF80BD00BF5405002080B500AF4C
:101950000A4B9B7A002B0AD0094B1B68084A23F0DC
:101960000603136000F020FC0448FFF709FF4FF462
:10197000802001F051FE00BF80BD00BF5405002053
:1019800010ED00E080B500AF00F012F800F035F87F
:10199000FEF71AFC00BF80BD80B582B000AF786052
:1019A0007868FEF72FFC034618460837BD4680BD11
:1019B00080B584B000AF0121012000F0F5FA0723C3
:1019C000BB6040F2BB23BB800023BB810023FB80B4
:1019D0003B1D19464FF0804002F06CF801220121B6
:1019E0004FF0804002F0EFF801214FF0804002F00C
:1019F000CBF800BF1037BD4680BD80B582B000AFC8
:101A00001C233B710123FB710F237B710F23BB71DF
:101A10003B1D184601F00EFE00BF0837BD4680BDD5
:101A200080B500AF01214FF0804002F018F9FEF7B9
:101A300097FD00BF80BD000080B582B000AF104BA5
:101A40007B60104B3B6007E07A68131D7B603B684E
:101A5000191D396012681A603B680B4A9342F3D330
:101A60000A480B494FF000028842B8BF40F8042BE7
:101A7000FADB00F067FA00BF0837BD4680BD00BF43
:101A8000443E000800000020C0040020C0040020E4
:101A9000F813002080B400AFFEE7000080B584B0EA
:101AA00000AF0023FB7343E0FA7B254913469B00FC
:101AB00013449B000B440C331B680121184600F0B3
:101AC00055FAFA7B1E4913469B0013449B000B44B6
:101AD00008331B887B6001233B720023BB72012308
:101AE000FB7202237B72FA7B154913469B00134459
:101AF0009B000B4404331B683A1D1146184600F046
:101B000071FAFA7B0E4913469B0013449B000B4469
:101B100010331B78002B04D1FB7B184600F012F821
:101B200003E0FB7B184600F02DF8FB7B0133FB73D1
:101B3000FB7B032BB8D900BF1037BD4680BD00BF6B
:101B40000800002080B483B000AF0346FB71FA792F
:101B5000F9790B480B469B000B449B00034404336C
:101B60001968074813469B0013449B00034408333D
:101B70001B884B8300BF0C37BD4680BC704700BF3D
:101B80000800002080B483B000AF0346FB71FA79EF
:101B9000F9790B480B469B000B449B00034404332C
:101BA0001968074813469B0013449B0003440833FD
:101BB0001B880B8300BF0C37BD4680BC704700BF3D
:101BC0000800002080B584B000AF786007F10803FA
:101BD0001946786800F084FF3B7A03F01F03012B5D
:101BE0000AD0022B0FD0002B14D107F1080319469D
:101BF000786800F0A5FB16E007F10803194678683D
:101C000000F0EEFB0FE007F108031946786800F0DA
:101C10001BFC08E03B7A23F07F03DBB219467868AF
:101C200001F03CFE00BF002318461037BD4680BDC2
:101C300080B584B000AF78600B46FB70FB78002B5A
:101C400044D17B6803F55C73FB607B6893F81131CA
:101C5000032B4ED1FB68DA69FB689B689A4220D956
:101C6000FB68DA69FB689B68D21AFB68DA617B68FB
:101C7000DB78012B06D1FB68DA68FB689B681A44A5
:101C8000FB68DA60FB68D968FB689A68FB68DB6907
:101C9000934228BF13469BB21A46786801F0C5FEEE
:101CA00027E07B68D3F8E0351B69002B0AD07B68FE
:101CB00093F81231032B05D17B68D3F8E0351B690B
:101CC00078689847786801F0C4FE12E07B68D3F822
:101CD000E0359B69002B0CD07B6893F81231032B05
:101CE00007D17B68D3F8E0359B69FA7811467868AC
:101CF0009847002318461037BD4680BD80B584B094
:101D000000AF78600B46FB70FB78002B5FD17B68DF
:101D100003F58C73FB607B6893F81131022B69D15A
:101D2000FB68DA69FB689B689A421BD9FB68DA6931
:101D3000FB689B68D21AFB68DA617B68DB78012B51
:101D400006D1FB68DA68FB689B681A44FB68DA60B6
:101D5000FB68D968FB68DB699BB21A46786801F0BA
:101D600050FE47E0FB681B6AFA689268B3FBF2F129
:101D700002FB01F29B1A002B14D1FB681A6AFB6864
:101D80009B689A420ED3FB681A6AFB685B6A9A42A8
:101D900008D200220021786801F033FEFB6800229F
:101DA0005A6227E07B68D3F8E035DB68002B0AD065
:101DB0007B6893F81231032B05D17B68D3F8E035AB
:101DC000DB6878689847786801F05BFE12E07B6812
:101DD000D3F8E0355B69002B0CD07B6893F81231A7
:101DE000032B07D17B68D3F8E0355B69FA7811469D
:101DF00078689847002318461037BD4680BD80B5E7
:101E000082B000AF7860002340220021786801F0A2
:101E100073FC002340228021786801F06DFC7B6810
:101E2000012283F812217B68D3F8E4355B687A6875
:101E3000927810469847002318460837BD4680BD63
:101E400080B582B000AF78607B68D3F8E4351B6959
:101E500098477B68032283F812210023184608372D
:101E6000BD4680BD80B582B000AF78607B6804223B
:101E700083F812217B68D3F8E435DB6898470023A8
:101E800018460837BD4680BD80B582B000AF786087
:101E90007B68D3F8E035DB69002B05D07B68D3F88D
:101EA000E035DB6978689847002318460837BD4657
:101EB00080BD80B582B000AF78600B46FB707B6858
:101EC000D3F8E0351B68FA781146786898477B6844
:101ED000D3F8E4359B689847002318460837BD4679
:101EE00080BD80B582B000AF78600B46FB707B6828
:101EF000D3F8E0355B68FA78114678689847002394
:101F000018460837BD4680BD80B582B000AF786006
:101F10007B68D3F8E0351B6A786898470023184639
:101F20000837BD4680BD80B582B000AF78607B6861
:101F3000D3F8E0355B6A786898470023184608377D
:101F4000BD4680BD80B500AF00F02EF9FFF7A6FDBD
:101F5000FFF718FD42F20F70FFF73CFCFFF75CFC47
:101F6000014B00221A70FEE74805002080B483B0C0
:101F700000AF78600B46FB70FB78002B06D0094B56
:101F80001A6B08497B6813430B6306E0054B1A6B19
:101F90007B68DB43034913400B6300BF0C37BD462E
:101FA00080BC70470038024080B483B000AF7860D6
:101FB0000B46FB70FB78002B06D0094B1A6C0849C6
:101FC0007B6813430B6406E0054B1A6C7B68DB43AC
:101FD000034913400B6400BF0C37BD4680BC7047FB
:101FE0000038024080B487B000AF786039600023C9
:101FF0007B6100233B610023FB6000237B6176E073
:1020000001227B6902FA03F33B613B681B683A6972
:102010001340FB60FA683B699A4265D17B681A6895
:102020007B695B00032101FA03F3DB431A407B6801
:102030001A607B681A683B681B7919467B695B00EC
:1020400001FA03F31A437B681A603B681B79012B82
:1020500003D03B681B79022B2ED17B689A687B6981
:102060005B00032101FA03F3DB431A407B689A60AB
:102070007B689A683B685B7919467B695B0001FA6B
:1020800003F31A437B689A607B685A687B699BB24A
:10209000194601238B40DB431A407B685A607B68FA
:1020A0005B683A68927911467A6992B201FA02F253
:1020B00092B21A437B685A607B68DA687B699BB28C
:1020C0005B00032101FA03F3DB431A407B68DA600B
:1020D0007B68DA683B68DB7919467B695B0001FA4B
:1020E00003F31A437B68DA607B6901337B617B69A8
:1020F0000F2B85D900BF1C37BD4680BC704780B40C
:1021000085B000AF78600B467B800023FB737B6853
:102110001A697B881340002B02D00123FB7301E076
:102120000023FB73FB7B18461437BD4680BC704709
:1021300080B582B000AF786039603B681946786836
:1021400000F004F800BF0837BD4680BD80B485B0FC
:1021500000AF786039600023FB6017E07A68FB68A5
:102160001A440F4B1B6811780E4AD1540C4B1B6854
:1021700001330B4A1360FB680133FB60084B1B689B
:10218000B3F5006F02D1064B00221A60FA683B6873
:102190009A42E3D3002318461437BD4680BC7047EB
:1021A00030050020D40B002080B500AF124B1B6817
:1021B000114A43F0010313600F4B00229A600E4B4B
:1021C0001B680D4A23F0847323F4803313600A4B99
:1021D0000A4A5A60084B1B68074A23F4802313609D
:1021E000054B0022DA6000F00DF8054B4FF000625D
:1021F0009A6000BF80BD00BF00380240103000244C
:1022000000ED00E080B483B000AF00237B600023CA
:102210003B60354B1B68344A43F480331360324BC8
:102220001B6803F400333B607B6801337B603B68D1
:10223000002B03D17B68B3F5A06FF0D12A4B1B684C
:1022400003F40033002B02D001233B6001E00023A4
:102250003B603B68012B42D1234B1B6C224A43F06D
:1022600080531364214B1B68204A43F4804313605E
:102270001D4B1D4A9B6893601B4B9B681A4A43F495
:1022800000439360184B9B68174A43F4A053936034
:10229000154B174A5A60144B1B68134A43F080735E
:1022A000136000BF104B1B6803F00073002BF9D0C4
:1022B000104B40F205621A600B4B9B680A4A23F0F0
:1022C00003039360084B9B68074A43F00203936043
:1022D00000BF054B9B6803F00C03082BF9D100BF2E
:1022E0000C37BD4680BC704700380240007000408B
:1022F00008544007003C024080B485B000AF7860CD
:102300000023FB607A6813461B019B1ADB001A4608
:102310000A4BA3FB0213D21A520813449B08BB605A
:10232000FB680133FB60FA68BB689A4200D8F7E7A4
:1023300000BF1437BD4680BC704700BF25499224BA
:1023400080B584B000AF786039600023FB733B68D0
:102350005B78092B39D801A252F823F0AD2300088D
:10236000C1230008CB230008B7230008CB230008B3
:102370008F23000885230008CB230008A32300082F
:10238000992300083968786800F036F922E0396846
:10239000786800F005FA1DE03968786800F03EFAC8
:1023A00018E03968786800F0B3FA13E039687868A3
:1023B00000F0DEFA0EE03968786800F001FB09E011
:1023C0003968786800F064FB04E03968786800F0E8
:1023D000CFFB00BFFB7B18461037BD4680BD00BF5A
:1023E00080B584B000AF786039600023FB737B68F0
:1023F00093F81231032B1BD13B689B88DBB2012B76
:1024000011D87B68D3F8E0359B68396878689847BD
:102410003B68DB88002B10D1FB7B002B0DD178684B
:1024200001F017FB09E03968786800F0A1FB04E0CF
:102430003968786800F09CFB00E000BFFB7B184621
:102440001037BD4680BD000080B584B000AF786015
:1024500039600023FB733B689B88BB733B685B78E8
:10246000012B39D0032B02D0002B6CD0BDE07B6850
:1024700093F81231022B02D0032B0CD025E0BB7B4A
:10248000002B27D0BB7B802B24D0BB7B19467868E0
:1024900001F004FA1EE03B685B88002B0AD1BB7B8D
:1024A000002B07D0BB7B802B04D0BB7B1946786800
:1024B00001F0F4F97B68D3F8E0359B6839687868F7
:1024C0009847786801F0C5FA05E03968786800F047
:1024D0004FFB00E000BF88E07B6893F81231022BCD
:1024E00002D0032B0CD025E0BB7B002B27D0BB7B7D
:1024F000802B24D0BB7B1946786801F0CFF91EE011
:102500003B685B88002B1CD1BB7B002B0ED0BB7BB8
:10251000802B0BD0BB7B1946786801F0FAF97B68F9
:10252000D3F8E0359B68396878689847786801F097
:1025300090FA06E03968786800F01AFB02E000BF04
:1025400053E000BF51E07B6893F81231022B02D0B8
:10255000032B0CD042E0BB7B002B44D0BB7B802BF9
:1025600041D0BB7B1946786801F098F93BE097F9B8
:102570000E30002B15DABB7B03F07F02796813461F
:102580009B001344DB000B4403F58D731B78002B79
:1025900003D0184B01221A601AE0164B00221A6071
:1025A00016E097F90E30002B12DBBA7B79681346E0
:1025B0009B001344DB000B4403F272331B78002BA7
:1025C00003D00C4B01221A6002E00A4B00221A6071
:1025D00002220849786801F0F4F905E03968786862
:1025E00000F0C6FA00E000BF00BFFB7B18461037C2
:1025F000BD4680BD1C05002080B584B000AF78606A
:1026000039603B685B881B0A9BB2013B062B00F2DA
:10261000A98001A252F823F035260008652600089B
:102620008D26000865270008652700085127000847
:102630005B2700087B68D3F8E8351B687A689278D6
:1026400007F10A0110469847F8603B68DB88402B89
:1026500005D07B6893F81231012B40F08880082365
:102660007B8184E07B68D3F8E0359B6A7A68927856
:1026700007F10A0110469847F860FB68013302220F
:102680001A707B68FA68C3F8EC2571E03B685B88D8
:10269000DBB2052B56D801A252F823F0B52600086C
:1026A000CD260008E5260008FD26000815270008AD
:1026B0002D2700087B68D3F8E8355B687A68927844
:1026C00007F10A0110469847F86040E07B68D3F8AC
:1026D000E8359B687A68927807F10A0110469847B6
:1026E000F86034E07B68D3F8E835DB687A68927884
:1026F00007F10A0110469847F86028E07B68D3F894
:10270000E8351B697A68927807F10A011046984704
:10271000F8601CE07B68D3F8E8355B697A689278EA
:1027200007F10A0110469847F86010E07B68D3F87B
:10273000E8359B697A68927807F10A011046984754
:10274000F86004E03968786800F012FA25E00FE0DC
:102750003968786800F00CFA1FE03968786800F092
:1027600007FA1AE03968786800F002FA15E000BF4D
:102770007B89002B11D03B68DB88002B0DD03B6898
:10278000DA887B89934228BF13469BB27B817B8981
:102790001A46F968786801F014F91037BD4680BD13
:1027A00080B584B000AF786039603B689B88002BAF
:1027B0002CD13B68DB88002B28D13B685B88DBB2DF
:1027C00003F07F03FB737B6893F81231032B04D172
:1027D0003968786800F0CCF91CE07B68FA7B83F8F4
:1027E0001321FB7B1946786801F0CEF8786801F078
:1027F00030F9FB7B002B04D07B68022283F8122186
:1028000008E07B68012283F8122103E039687868C8
:1028100000F0AEF900BF1037BD4680BD80B582B074
:1028200000AF786039603B685B88DAB2374B1A706A
:10283000364B1B78012B04D93968786800F098F979
:102840005FE07B6893F81231022B02D0032B1BD080
:1028500052E02E4B1B78002B12D02C4B1A787B6841
:1028600083F810217B68032283F81221274B1B7801
:1028700019467868FFF71DFB786801F0EAF840E038
:10288000786801F0E6F83CE0204B1B78002B12D171
:102890007B68022283F812211C4B1A787B6883F82C
:1028A00010211A4B1B7819467868FFF71AFB7868D5
:1028B00001F0CFF825E07B6893F81021134B1B78CB
:1028C0009A4215D07B6893F8103119467868FFF763
:1028D00008FB0E4B1A787B6883F810210B4B1B7892
:1028E00019467868FFF7E5FA786801F0B2F808E071
:1028F000786801F0AEF804E03968786800F038F9DB
:1029000000BF00BF0837BD4680BD00BF28050020BE
:1029100080B582B000AF786039603B68DB88012BFE
:1029200004D03968786800F023F91BE07B6893F8DD
:102930001231022B02D0032B06D00EE001220B49EC
:10294000786801F03EF80DE07B6803F5887301229A
:102950001946786801F035F804E03968786800F0C5
:1029600007F900BF00BF0837BD4680BD2005002025
:1029700080B582B000AF786039607B6893F812311F
:10298000023B012B11D87B68D3F81431002B03D004
:102990000A4B03221A6002E0084B01221A6001224E
:1029A0000649786801F00DF804E03968786800F0AD
:1029B000DFF800BF00BF0837BD4680BD24050020FA
:1029C00080B584B000AF786039600023FB733B684A
:1029D0005B88012B0ED17B680122C3F814217B6830
:1029E000D3F8E0359B68396878689847786801F0D3
:1029F00030F848E03B685B88022B44D13B689B88F9
:102A0000DBB2002B3FD17B681B695B68BB603B6816
:102A10009B881B0A9BB2FB73FB7B013B042B2BD8CF
:102A200001A252F823F000BF3D2A0008492A0008FD
:102A3000552A0008612A00086D2A00083B7A012205
:102A400062F306133B7217E03B7A022262F306132D
:102A50003B7211E03B7A032262F306133B720BE0F8
:102A60003B7A042262F306133B7205E03B7A0522AF
:102A700062F306133B7200BF7B681B69BA685A6039
:102A8000786800F0E6FF00BF1037BD4680BD00BF8C
:102A900080B582B000AF786039607B6893F81231FE
:102AA000023B012B12D83B685B88012B13D17B685A
:102AB0000022C3F814217B68D3F8E0359B6839689D
:102AC00078689847786800F0C4FF04E0396878684F
:102AD00000F04EF800E000BF00BF0837BD4680BDE3
:102AE00080B483B000AF786039607B6893F8C82504
:102AF0003B681A707B6893F8C9253B685A707B68FD
:102B000093F8CA359AB27B6893F8CB359BB21B0217
:102B10009BB213449AB23B685A807B6893F8CC35D9
:102B20009AB27B6893F8CD359BB21B029BB21344DB
:102B30009AB23B689A807B6893F8CE359AB27B68EC
:102B400093F8CF359BB21B029BB213449AB23B68F9
:102B5000DA803B68DB881A467B68C3F83C217B68D7
:102B6000012283F8112100BF0C37BD4680BC70479D
:102B700080B582B000AF786039603B681B785BB28B
:102B8000002B04DA8021786800F088FE0CE03B68B6
:102B9000DB88002B04D18021786800F07FFE03E001
:102BA0000021786800F07AFE7868FEF7B1FD00BF7A
:102BB0000837BD4680BD80B586B000AF7860002381
:102BC0007B617868FEF7CEF90346002B00F09C800D
:102BD0007868FEF7D8F903463B613B69002B01D1C9
:102BE000002392E0BB7C03F00803DBB2002B06D08D
:102BF000786800F013FA02467B6913437B61BB7C63
:102C000003F00403DBB2002B06D0786800F010F963
:102C100002467B6913437B613B7C03F00203DBB21A
:102C2000002B09D00023FB603B7B43F002033B7386
:102C30007B68DB68FA685A61FB7C23F07F03DBB2B8
:102C4000002B06D0786800F065F802467B691343D4
:102C50007B617B7C03F00803DBB2002B06D0786835
:102C600000F098F802467B6913437B613B7C03F0DC
:102C70000803DBB2002B06D0786800F08BFA02461E
:102C80007B6913437B613B7C03F01003DBB2002BB9
:102C900006D0786800F098FA02467B6913437B619E
:102CA0007B7C03F01003DBB2002B06D0786800F0C9
:102CB0007FFB02467B6913437B617B7C03F020032F
:102CC000DBB2002B06D0786800F00EFC02467B6970
:102CD00013437B61BB7C03F01003DBB2002B06D0F7
:102CE000786800F03DFC02467B6913437B61BB7C46
:102CF00003F02003DBB2002B06D0786800F04AFC1A
:102D000002467B6913437B617B6918461837BD46D1
:102D100080BD000080B586B000AF78607B689B7A8C
:102D2000002B11D07B6803F586731B68FB603B7B2F
:102D30006FF341033B733B7B6FF300033B737B6893
:102D4000D3F80C31FA681A6000233B613B7C43F0F6
:102D500001033B747B681B6959683B69DA437B68F4
:102D60001B690A405A600A4B1B689B697868984740
:102D700000237B61FB7D43F08003FB757B68DB6890
:102D80007A695A61012318461837BD4680BD00BFD5
:102D90008400002080B586B000AF7860224B1B68AD
:102DA0005B69786898477B681B699B68FB600023B8
:102DB0007B617B7D43F008037B757B68DB687A6908
:102DC0005A617B689B7A002B29D03B7B03F001037F
:102DD000DBB2002B23D000233B613B7C43F001039B
:102DE0003B747B68D3F80C3119683A697B68D3F877
:102DF0000C310A431A603B7C43F002033B747B684E
:102E0000D3F80C3119683A697B68D3F80C310A435E
:102E10001A60064B1B69054A43F006031361012340
:102E200018461837BD4680BD8400002000ED00E044
:102E300080B586B000AF786000233B610023BB60A3
:102E40007868FEF750FC7861DCE07B6903F00103F1
:102E5000002B00F0D1803B69DBB21946786800F0A6
:102E6000B3FB0346BB603B7A03F00103DBB2002BEC
:102E700032D001223B6902FA03F3FB607B681B69D5
:102E8000596BFB68DA437B681B690A405A6300236D
:102E9000BB603B7A43F001033B727A683B690433C1
:102EA0009B0013449B68BA689A605B4B1B685B6825
:102EB0003A69D2B21146786898477B68DB78012B73
:102EC0000AD13B69002B07D17B6893F81131042BA1
:102ED00002D17868FEF71CFC3B7A03F00403DBB2F6
:102EE000002B0DD00023BB603B7A43F004033B7200
:102EF0007A683B6904339B0013449B68BA689A6004
:102F00003B7A03F00803DBB2002B0DD00023BB603B
:102F10003B7A43F008033B727A683B6904339B00B9
:102F200013449B68BA689A603B7A03F01003DBB2E3
:102F3000002B0DD00023BB603B7A43F010033B72A3
:102F40007A683B6904339B0013449B68BA689A60B3
:102F50003B7A03F02003DBB2002B0DD00023BB60D3
:102F60003B7A43F020033B727A683B6904339B0051
:102F700013449B68BA689A603B7A03F04003DBB263
:102F8000002B0DD00023BB603B7A43F040033B7223
:102F90007A683B6904339B0013449B68BA689A6063
:102FA0003B7A03F00203DBB2002B0DD00023BB60A1
:102FB0003B7A43F002033B727A683B6904339B001F
:102FC00013449B68BA689A603B7A23F07F03DBB2B4
:102FD000002B11D03969786800F078F90023BB60C4
:102FE0003B7A43F080033B727A683B6904339B0071
:102FF00013449B68BA689A603B6901333B617B6903
:103000005B087B617B69002B7FF41FAF01231846AF
:103010001837BD4680BD00BF8400002080B586B053
:1030200000AF786000233B610023FB607868FEF707
:103030002BFB7861A3E07B6903F00103002B00F018
:1030400098803B69DBB219467868FEF732FB03468D
:10305000FB603B7B03F00103DBB2002B48D0002375
:10306000FB603B7B43F001033B737A683B6914339D
:103070009B0013445B68FA689A607B68DB78012BDD
:103080001FD17A683B6914339B0013445B681B694A
:10309000BB6079683A6913469B001344DB000B441C
:1030A00003F55E731B68BA68C2F31202991A786856
:1030B0003A6913469B001344DB00034403F5627333
:1030C0001960334B1B681B683A69D2B211467868A5
:1030D00098477B68DB78012B0AD13B69002B07D12D
:1030E0007B6893F81131052B02D17868FEF710FB4D
:1030F0003B7B03F00203DBB2002B0DD00023FB600F
:103100003B7B43F002033B737A683B6914339B00BB
:1031100013445B68FA689A603B7B03F00403DBB2FC
:10312000002B0DD00023FB603B7B43F004033B737B
:103130007A683B6914339B0013445B68FA689A60B1
:103140003B7B03F00803DBB2002B12D0104B1B6853
:103150009B68786898470023FB603B7B43F008033B
:103160003B737A683B6914339B0013445B68FA68CD
:103170009A603B6901333B617B695B087B617B69DA
:10318000002B7FF458AF012318461837BD4680BD89
:103190008400002080B584B000AF7860094B1B68C4
:1031A000DB68786898470023FB603B7B43F00803AB
:1031B0003B737B68DB68FA685A6101231846103755
:1031C000BD4680BD8400002080B586B000AF786029
:1031D00000233B613B7C43F010033B747B68DB685E
:1031E00099693B69DA437B68DB680A409A617B68CE
:1031F000DB681B6AFB603B7BC3F30303DBB21A464D
:1032000013469B001344DB0003F55C737A68134498
:103210007B61BB7BC3F34303DBB2013B052B45D88A
:1032200001A252F823F000BFAD320008413200087D
:10323000AD320008AD320008AD3200088932000816
:10324000BA8947F6F07313409BB2002B30D07B69EC
:10325000D968BB89C3F30A139BB21A467868FDF795
:103260000FFE7B69DB68BA89C2F30A1292B21A4474
:103270007B69DA607B699B69BA89C2F30A1292B2F0
:103280001A447B699A6113E07B6803F5B9630822ED
:1032900019467868FDF7F4FD7B699B69BA89C2F32A
:1032A0000A1292B21A447B699A6102E000BF00E000
:1032B00000BF7B68DB6899693A697B68DB680A4311
:1032C0009A61012318461837BD4680BD80B586B087
:1032D00000AF7860396000237B610023BB603A68EF
:1032E00013469B001344DB0003F58C737A68134488
:1032F000FB60FB685A69FB689B69D31A7B61FB68BA
:103300009B687A699A4202D9FB689B687B617B69FA
:1033100003339B083B617A683B6804339B0013448A
:103320009B689B69BB602EE0FB685A69FB689B69E0
:10333000D31A7B61FB689B687A699A4202D9FB6861
:103340009B687B617B6903339B083B61FB68D968A1
:103350003B68DAB27B699BB27868FDF757FDFB6882
:10336000DA687B691A44FB68DA60FB689A697B69F2
:103370001A44FB689A617A683B6804339B001344E3
:103380009B689B69BB603B891A463B69934209D2A3
:10339000FB689A69FB685B699A4203D2FB685B69C8
:1033A000002BC1D1012318461837BD4680BD00004F
:1033B00080B58AB000AF786000233B6100233B6298
:1033C0000023FB610023BB6100237B610023FB60C2
:1033D0003B7C43F001033B747B681B6959683B6984
:1033E000DA437B681B690A405A6000217868FDF760
:1033F00073FD00237B6212E07A687B6A04339B00D2
:1034000013449B68FF229A607A687B6A14339B009E
:1034100013445B68FF229A607B6A01337B627B689E
:103420005B781A467B6A9342E6D37B681B694FF050
:10343000FF329A6101233B8401237B847B681B69F3
:103440003A6ADA613B7F43F008033B773B7F43F006
:1034500001033B773B7F43F004033B773B7F43F023
:1034600002033B777B681B69FA695A613B7E43F034
:1034700001033B763B7E43F008033B763B7E43F003
:1034800002033B763B7E43F004033B763B7E43F0F6
:1034900020033B767B681B69BA691A617B681B69EC
:1034A0001B687B61BB8A6FF30A13BB827B681B6955
:1034B0007A691A607868FEF72BF90023FB607B7B42
:1034C00043F010037B737B68DB68FA685A61054B35
:1034D0001B681B6978689847012318462837BD4642
:1034E00080BD00BF8400002080B584B000AF78604C
:1034F0007868FDF781FD7B68DB68DB68BB60786816
:10350000FDF757FD0346032B0CD17B6800229A7010
:103510007B684FF400729A807B7A092262F38503FC
:103520007B720AE07B6801229A707B6840229A8055
:103530007B7A052262F385037B727B68DB68BA685D
:10354000DA600023FB607B7B43F020037B737B68A6
:10355000DB68FA685A61012318461037BD4680BD02
:1035600080B584B000AF78600023FB60084B1B6817
:10357000DB6978689847BB7B43F01003BB737B68BB
:10358000DB68FA685A61012318461037BD4680BDD2
:103590008400002080B584B000AF78600023FB6019
:1035A000084B1B681B6A78689847BB7B43F0200375
:1035B000BB737B68DB68FA685A61012318461037D1
:1035C000BD4680BD8400002080B487B000AF786025
:1035D0000B46FB707B681B691B697B617B681B6901
:1035E0005B6B3B61FB783A6922FA03F3DB01DBB2E8
:1035F0007A6913437B61FB787A6804339B00134438
:103600009B689B687A691340FB60FB6818461C370F
:10361000BD4680BC7047000080B483B000AF7860C6
:10362000034A7B68536100BF0C37BD4680BC7047BE
:10363000003C014080B485B000AF78600023FB738C
:103640000023BB730F237B737B68DB78002B39D09F
:10365000274BDB68DB431B0ADBB203F00703FB737A
:10366000FB7BC3F10403BB737A7BFB7B42FA03F35E
:103670007B737B685B781A46BB7B02FA03F3FB73B0
:103680007B689A787B7B1340DAB2FB7B1343FB7336
:10369000FB7B1B01FB73174A7B681B781344FA7B87
:1036A00083F800237B681B7803F01F0311497A68B5
:1036B00012785209D2B21046012202FA03F341F8FD
:1036C00020300FE07B681B7803F01F0309497A68FC
:1036D00012785209D2B2104601229A4000F120031A
:1036E00041F8232000BF1437BD4680BC704700BF9F
:1036F00000ED00E000E100E080B584B000AF78604C
:10370000084611461A460346FB700B463B8013469B
:10371000BB7097F90330002B0CDAFB7803F07F02C3
:1037200013469B001344DB0003F58C737A68134443
:10373000FB600BE0FB7803F07F0213469B00134411
:10374000DB0003F55C737A681344FB60FB7803F0DD
:103750007F03DAB2FB681A7097F90330DBB2DB093A
:10376000DBB21A46FB685A703A88FB689A60FB68BD
:10377000BA78DA70FB685B78002B04D0FB681B78A2
:103780009AB2FB68DA80BB78022B02D1FB68002278
:103790001A71F9687868FDF76AFC0023184610373B
:1037A000BD4680BD80B586B000AFF8607A601A462D
:1037B0000B46FB7213463B81FB7A03F07F021346F4
:1037C0009B001344DB0003F55C73FA6813447B61D0
:1037D0007B697A68DA603A897B695A617B69002281
:1037E0009A617B6900225A70FB7A03F07F03DAB298
:1037F0007B691A70FB68DB78012B02D17A687B69E0
:103800001A617B691B78002B04D17969F868FDF790
:10381000DAFD03E07969F868FDF794FC00231846A7
:103820001837BD4680BD80B586B000AFF8607A60BD
:103830003B600B46FB72FB7A03F07F0213469B0052
:103840001344DB0003F58C73FA6813447B617B69D6
:1038500001225A70FB7A03F07F03DAB27B691A7097
:103860007B697A68DA607A687B691A617B69002211
:103870009A617B693A685A617B691B78002B04D195
:103880007969F868FDF79FFD03E07969F868FDF74D
:1038900059FC002318461837BD4680BD80B584B05A
:1038A00000AF78600B46FB7097F90330002B0CDA01
:1038B000FB7803F07F0213469B001344DB0003F503
:1038C0008C737A681344FB6009E0FA7813469B0016
:1038D0001344DB0003F55C737A681344FB60FB68F8
:1038E00001229A70FB7803F07F03DAB2FB681A704A
:1038F00097F90330DBB2DB09DBB21A46FB685A707A
:10390000F9687868FDF744FE002318461037BD4675
:1039100080BD80B584B000AF78600B46FB7097F92E
:103920000330002B0CDAFB7803F07F0213469B0078
:103930001344DB0003F58C737A681344FB6009E0E1
:10394000FA7813469B001344DB0003F55C737A6836
:103950001344FB60FB6800229A70FB7803F07F033E
:10396000DAB2FB681A7097F90330DBB2DB09DBB21D
:103970001A46FB685A70F9687868FDF74BFE002319
:1039800018461037BD4680BD80B485B000AF786062
:103990000B46FB700023FB60FB7803F07F03DAB279
:1039A000BB8962F30A13BB817B681B691968FA68DB
:1039B0007B681B690A431A6000BF1437BD4680BC90
:1039C000704780B586B000AFF860B9601346FB80E1
:1039D0000023FB75FA88FB68C3F83821FA88FB6876
:1039E000C3F83421FB68022283F81121FB88BA68EE
:1039F0000021F868FFF717FFFB7D18461837BD4612
:103A000080BD80B586B000AFF860B9601346FB801A
:103A10000023FB75FB88BA680021F868FFF703FFF5
:103A2000FB7D18461837BD4680BD80B586B000AF17
:103A3000F860B9601346FB800023FB75FB88BA6809
:103A40000021F868FFF7AEFEFB7D18461837BD462B
:103A500080BD80B584B000AF78600023FB737B68C5
:103A6000042283F811210023002200217868FFF747
:103A7000DAFE7868FDF74CFEFB7B18461037BD4632
:103A800080BD80B584B000AF78600023FB737B6895
:103A9000052283F811210023002200217868FFF716
:103AA00081FE7868FDF734FEFB7B18461037BD4673
:103AB00080BD000080B485B000AF7860396000231D
:103AC000FB817B681B88FB817B68284A934213D06B
:103AD0007B68274A93420FD07B68B3F1804F0BD0AD
:103AE0007B68244A934207D07B68234A934203D0E1
:103AF0007B68224A934208D1FB8923F07003FB8143
:103B00003B685A88FB891343FB817B681C4A9342BC
:103B10000CD07B681B4A934208D0FB8923F4407386
:103B2000FB813B681A89FB891343FB817B68FA8917
:103B30001A803B685A687B68DA623B681A887B683F
:103B40001A857B68094A934203D07B68084A9342EE
:103B500004D13B689B7A9AB27B681A867B68012203
:103B60009A8200BF1437BD4680BC704700000140F8
:103B7000000401400004004000080040000C004028
:103B8000001000400014004080B483B000AF7860A3
:103B90000B46FB70FB78002B08D07B681B889BB220
:103BA00043F001039AB27B681A8007E07B681B88A8
:103BB0009BB223F001039AB27B681A8000BF0C37D6
:103BC000BD4680BC704780B483B000AF78600B46C0
:103BD0007B8013467B707B78002B08D07B689B89A9
:103BE0009AB27B8813439AB27B689A8109E07B681A
:103BF0009B899AB27B88DB439BB213409AB27B6865
:103C00009A8100BF0C37BD4680BC704780B485B038
:103C100000AF78600B467B800023FB730023BB81E1
:103C200000237B817B681B8A9AB27B881340BB810F
:103C30007B689B899AB27B8813407B81BB89002B70
:103C400005D07B89002B02D00123FB7301E0002308
:103C5000FB73FB7B18461437BD4680BC704780B4AD
:103C600083B000AF78600B467B807B88DB439AB2E1
:103C70007B681A8200BF0C37BD4680BC70470000CD
:103C8000024B13B1024800F005B870470000000075
:103C9000A13C0008002301461A46184600F01EB851
:103CA00038B50A4C0A4D641BA4100AD004F18043B5
:103CB000013B05EB8305013C55F804399847002C7E
:103CC000F9D1BDE8384000F06FB800BFC004002053
:103CD000BC040020704700BF704700BF2DE9F843C7
:103CE0002B4D0646286898460F469146FFF7F2FF8F
:103CF000284B1C68D4F84831002B3DD05A681F2A45
:103D00000DDC02F1010C16BB0232C3F804C02868B6
:103D100043F82270FFF7E0FF0020BDE8F8831E4B58
:103D20007BB34FF4C870AFF30080034648B3002064
:103D3000D4F848114FF0010CC3E900100246C4F852
:103D40004831C3F88801C3F88C01002EDCD0012172
:103D500003EB8204C4F88890D3F8880191400843AB
:103D6000022EC3F88801C4F80881CDD1D3F88C01A4
:103D70000143C3F88C11C7E704F5A673C4F84831B2
:103D8000BCE72868FFF7A8FF4FF0FF30C5E700BF8A
:103D9000B0040020403E000800000000F8B500BF5D
:103DA000F8BC08BC9E467047F8B500BFF8BC08BC1C
:103DB0009E467047010F15070B070B070B0F1400EA
:103DC0000F1400010000000002050C1122050C0573
:103DD0000C001010202001010000000002050C1151
:103DE00022050C050C00000000000101000000008D
:103DF00003050C1021050C050C00101525250101EB
:103E0000000000000407131738071307130C1800ED
:103E10000C1801010000000005020B0C1A020B0235
:103E20000B00101C283001010000000008030717D8
:103E30001E0307090D0005050F0F0100000000001B
:043E400088000020D6
:103E4400FFFFFFFFFFFF000000000000000C024026
:103E54000010000008000000000000000100000045
:103E6400000C0240002000000800000000000000D8
:103E740002000000000C02400040000008000000A6
:103E84000000000003000000000C0240008000005D
:103E94000800000000000000311C0008FD1C0008A0
:103EA400C51B0008891E0008FF1D0008651E0008C8
:103EB400411E0008091F0008271F00080000000019
:103EC40000000000580000200000000074030020DF
:103ED400DC03002044040020000000000000000077
:103EE40000000000000000000000000000000000CE
:103EF40000000000000000000000000000000000BE
:103F040000000000000000000000000000000000AD
:103F1400000000000000000000000000000000009D
:103F2400000000000000000000000000000000008D
:103F3400000000000000000000000000000000007D
:103F4400000000000000000000000000000000006D
:103F5400000000000000000000000000000000005D
:103F6400000000000000000000000000000000004D
:103F740001000000000000000E33CDAB34126DE6EA
:103F8400ECDE05000B000000000000000000000053
:103F9400000000000000000000000000000000001D
:103FA400000000000000000000000000000000000D
:103FB40000000000000000000000000000000000FD
:103FC40000000000000000000000000000000000ED
:1042F400D4130020813C0008AD01000889010008A6
:0400000508000000EF
:00000001FF
